{
  "contractName": "Governance",
  "abi": [
    {
      "inputs": [
        {
          "internalType": "address",
          "name": "_magayoOracle",
          "type": "address"
        }
      ],
      "stateMutability": "nonpayable",
      "type": "constructor"
    },
    {
      "anonymous": false,
      "inputs": [
        {
          "indexed": true,
          "internalType": "address",
          "name": "previousOwner",
          "type": "address"
        },
        {
          "indexed": true,
          "internalType": "address",
          "name": "newOwner",
          "type": "address"
        }
      ],
      "name": "OwnershipTransferred",
      "type": "event"
    },
    {
      "inputs": [],
      "name": "lottery",
      "outputs": [
        {
          "internalType": "address",
          "name": "",
          "type": "address"
        }
      ],
      "stateMutability": "view",
      "type": "function",
      "constant": true
    },
    {
      "inputs": [],
      "name": "magayoOracle",
      "outputs": [
        {
          "internalType": "address",
          "name": "",
          "type": "address"
        }
      ],
      "stateMutability": "view",
      "type": "function",
      "constant": true
    },
    {
      "inputs": [],
      "name": "owner",
      "outputs": [
        {
          "internalType": "address",
          "name": "",
          "type": "address"
        }
      ],
      "stateMutability": "view",
      "type": "function",
      "constant": true
    },
    {
      "inputs": [],
      "name": "randomNumber",
      "outputs": [
        {
          "internalType": "address",
          "name": "",
          "type": "address"
        }
      ],
      "stateMutability": "view",
      "type": "function",
      "constant": true
    },
    {
      "inputs": [],
      "name": "renounceOwnership",
      "outputs": [],
      "stateMutability": "nonpayable",
      "type": "function"
    },
    {
      "inputs": [
        {
          "internalType": "address",
          "name": "newOwner",
          "type": "address"
        }
      ],
      "name": "transferOwnership",
      "outputs": [],
      "stateMutability": "nonpayable",
      "type": "function"
    },
    {
      "inputs": [
        {
          "internalType": "address",
          "name": "_lottery",
          "type": "address"
        }
      ],
      "name": "setLottery",
      "outputs": [],
      "stateMutability": "nonpayable",
      "type": "function"
    },
    {
      "inputs": [
        {
          "internalType": "address",
          "name": "_randomNumber",
          "type": "address"
        }
      ],
      "name": "setRandomNumber",
      "outputs": [],
      "stateMutability": "nonpayable",
      "type": "function"
    },
    {
      "inputs": [
        {
          "internalType": "address",
          "name": "_magayoOracle",
          "type": "address"
        }
      ],
      "name": "setMagayoOracle",
      "outputs": [],
      "stateMutability": "nonpayable",
      "type": "function"
    }
  ],
  "bytecode": "0x608060405234801561001057600080fd5b5060405161062d38038061062d8339818101604052602081101561003357600080fd5b5051600061003f6100ae565b600080546001600160a01b0319166001600160a01b0383169081178255604051929350917f8be0079c531659141344cd1fd0a4f28419497f9722a3daafe3b4186f6b6457e0908290a350600380546001600160a01b0319166001600160a01b03929092169190911790556100b2565b3390565b61056c806100c16000396000f3fe608060405234801561001057600080fd5b50600436106100935760003560e01c80638da5cb5b116100665780638da5cb5b14610112578063ba13a5721461011a578063ccbac9f514610122578063f298083b1461012a578063f2fde38b1461015057610093565b8063097d73ac1461009857806363ca1cd2146100bc578063715018a6146100e45780638d2a2b93146100ec575b600080fd5b6100a0610176565b604080516001600160a01b039092168252519081900360200190f35b6100e2600480360360208110156100d257600080fd5b50356001600160a01b0316610185565b005b6100e2610209565b6100e26004803603602081101561010257600080fd5b50356001600160a01b03166102b5565b6100a0610339565b6100a0610348565b6100a0610357565b6100e26004803603602081101561014057600080fd5b50356001600160a01b0316610366565b6100e26004803603602081101561016657600080fd5b50356001600160a01b03166103ea565b6003546001600160a01b031681565b61018d6104ec565b6001600160a01b031661019e610339565b6001600160a01b0316146101e7576040805162461bcd60e51b81526020600482018190526024820152600080516020610517833981519152604482015290519081900360640190fd5b600380546001600160a01b0319166001600160a01b0392909216919091179055565b6102116104ec565b6001600160a01b0316610222610339565b6001600160a01b03161461026b576040805162461bcd60e51b81526020600482018190526024820152600080516020610517833981519152604482015290519081900360640190fd5b600080546040516001600160a01b03909116907f8be0079c531659141344cd1fd0a4f28419497f9722a3daafe3b4186f6b6457e0908390a3600080546001600160a01b0319169055565b6102bd6104ec565b6001600160a01b03166102ce610339565b6001600160a01b031614610317576040805162461bcd60e51b81526020600482018190526024820152600080516020610517833981519152604482015290519081900360640190fd5b600280546001600160a01b0319166001600160a01b0392909216919091179055565b6000546001600160a01b031690565b6001546001600160a01b031681565b6002546001600160a01b031681565b61036e6104ec565b6001600160a01b031661037f610339565b6001600160a01b0316146103c8576040805162461bcd60e51b81526020600482018190526024820152600080516020610517833981519152604482015290519081900360640190fd5b600180546001600160a01b0319166001600160a01b0392909216919091179055565b6103f26104ec565b6001600160a01b0316610403610339565b6001600160a01b03161461044c576040805162461bcd60e51b81526020600482018190526024820152600080516020610517833981519152604482015290519081900360640190fd5b6001600160a01b0381166104915760405162461bcd60e51b81526004018080602001828103825260268152602001806104f16026913960400191505060405180910390fd5b600080546040516001600160a01b03808516939216917f8be0079c531659141344cd1fd0a4f28419497f9722a3daafe3b4186f6b6457e091a3600080546001600160a01b0319166001600160a01b0392909216919091179055565b339056fe4f776e61626c653a206e6577206f776e657220697320746865207a65726f20616464726573734f776e61626c653a2063616c6c6572206973206e6f7420746865206f776e6572a2646970667358221220435927026e36cf05639ec4d28e54ebee4b455286bab847e05024acb6d8f44def64736f6c634300060c0033",
  "immutableReferences": {},
  "source": "// SPDX-License-Identifier: UNLICENSED\npragma solidity 0.6.12;\n\nimport \"@openzeppelin/contracts/access/Ownable.sol\";\n\ncontract Governance is Ownable {\n  address public lottery;\n  address public randomNumber;\n  address public magayoOracle;\n\n  constructor(address _magayoOracle) public {\n    magayoOracle = _magayoOracle;\n  }\n\n  function setLottery(address _lottery) external onlyOwner {\n    lottery = _lottery;\n  }\n\n  function setRandomNumber(address _randomNumber) external onlyOwner {\n    randomNumber = _randomNumber;\n  }\n\n  function setMagayoOracle(address _magayoOracle) external onlyOwner {\n    magayoOracle = _magayoOracle;\n  }\n}\n",
  "sourcePath": "/workspaces/chainlink-lottodao/contracts/Governance.sol",
  "compiler": {
    "name": "solc",
    "version": "0.6.12+commit.27d51765.Emscripten.clang"
  },
  "schemaVersion": "3.4.7",
  "updatedAt": "2022-05-22T13:49:16.902Z",
  "networkType": "ethereum",
  "devdoc": {
    "kind": "dev",
    "methods": {
      "owner()": {
        "details": "Returns the address of the current owner."
      },
      "renounceOwnership()": {
        "details": "Leaves the contract without owner. It will not be possible to call `onlyOwner` functions anymore. Can only be called by the current owner. NOTE: Renouncing ownership will leave the contract without an owner, thereby removing any functionality that is only available to the owner."
      },
      "transferOwnership(address)": {
        "details": "Transfers ownership of the contract to a new account (`newOwner`). Can only be called by the current owner."
      }
    },
    "version": 1
  },
  "userdoc": {
    "kind": "user",
    "methods": {},
    "version": 1
  }
}