{
  "contractName": "MagayoOracle",
  "abi": [
    {
      "inputs": [
        {
          "internalType": "string",
          "name": "_game",
          "type": "string"
        },
        {
          "internalType": "uint256",
          "name": "_duration",
          "type": "uint256"
        }
      ],
      "stateMutability": "nonpayable",
      "type": "constructor"
    },
    {
      "anonymous": false,
      "inputs": [
        {
          "indexed": true,
          "internalType": "bytes32",
          "name": "id",
          "type": "bytes32"
        }
      ],
      "name": "ChainlinkCancelled",
      "type": "event"
    },
    {
      "anonymous": false,
      "inputs": [
        {
          "indexed": true,
          "internalType": "bytes32",
          "name": "id",
          "type": "bytes32"
        }
      ],
      "name": "ChainlinkFulfilled",
      "type": "event"
    },
    {
      "anonymous": false,
      "inputs": [
        {
          "indexed": true,
          "internalType": "bytes32",
          "name": "id",
          "type": "bytes32"
        }
      ],
      "name": "ChainlinkRequested",
      "type": "event"
    },
    {
      "anonymous": false,
      "inputs": [
        {
          "indexed": true,
          "internalType": "bytes32",
          "name": "requestId",
          "type": "bytes32"
        },
        {
          "indexed": false,
          "internalType": "uint256",
          "name": "bonusDrawn",
          "type": "uint256"
        }
      ],
      "name": "FulfillBonusDrawn",
      "type": "event"
    },
    {
      "anonymous": false,
      "inputs": [
        {
          "indexed": true,
          "internalType": "bytes32",
          "name": "requestId",
          "type": "bytes32"
        },
        {
          "indexed": false,
          "internalType": "uint256",
          "name": "bonusMax",
          "type": "uint256"
        }
      ],
      "name": "FulfillBonusMax",
      "type": "event"
    },
    {
      "anonymous": false,
      "inputs": [
        {
          "indexed": true,
          "internalType": "bytes32",
          "name": "requestId",
          "type": "bytes32"
        },
        {
          "indexed": false,
          "internalType": "uint256",
          "name": "bonusMin",
          "type": "uint256"
        }
      ],
      "name": "FulfillBonusMin",
      "type": "event"
    },
    {
      "anonymous": false,
      "inputs": [
        {
          "indexed": true,
          "internalType": "bytes32",
          "name": "requestId",
          "type": "bytes32"
        },
        {
          "indexed": false,
          "internalType": "bytes32",
          "name": "country",
          "type": "bytes32"
        }
      ],
      "name": "FulfillCountry",
      "type": "event"
    },
    {
      "anonymous": false,
      "inputs": [
        {
          "indexed": true,
          "internalType": "bytes32",
          "name": "requestId",
          "type": "bytes32"
        },
        {
          "indexed": false,
          "internalType": "uint256",
          "name": "digits",
          "type": "uint256"
        }
      ],
      "name": "FulfillDigits",
      "type": "event"
    },
    {
      "anonymous": false,
      "inputs": [
        {
          "indexed": true,
          "internalType": "bytes32",
          "name": "requestId",
          "type": "bytes32"
        },
        {
          "indexed": false,
          "internalType": "uint256",
          "name": "drawn",
          "type": "uint256"
        }
      ],
      "name": "FulfillDrawn",
      "type": "event"
    },
    {
      "anonymous": false,
      "inputs": [
        {
          "indexed": true,
          "internalType": "bytes32",
          "name": "requestId",
          "type": "bytes32"
        },
        {
          "indexed": false,
          "internalType": "uint256",
          "name": "mainDrawn",
          "type": "uint256"
        }
      ],
      "name": "FulfillMainDrawn",
      "type": "event"
    },
    {
      "anonymous": false,
      "inputs": [
        {
          "indexed": true,
          "internalType": "bytes32",
          "name": "requestId",
          "type": "bytes32"
        },
        {
          "indexed": false,
          "internalType": "uint256",
          "name": "mainMax",
          "type": "uint256"
        }
      ],
      "name": "FulfillMainMax",
      "type": "event"
    },
    {
      "anonymous": false,
      "inputs": [
        {
          "indexed": true,
          "internalType": "bytes32",
          "name": "requestId",
          "type": "bytes32"
        },
        {
          "indexed": false,
          "internalType": "uint256",
          "name": "mainMin",
          "type": "uint256"
        }
      ],
      "name": "FulfillMainMin",
      "type": "event"
    },
    {
      "anonymous": false,
      "inputs": [
        {
          "indexed": true,
          "internalType": "bytes32",
          "name": "requestId",
          "type": "bytes32"
        },
        {
          "indexed": false,
          "internalType": "bytes32",
          "name": "name",
          "type": "bytes32"
        }
      ],
      "name": "FulfillName",
      "type": "event"
    },
    {
      "anonymous": false,
      "inputs": [
        {
          "indexed": true,
          "internalType": "bytes32",
          "name": "requestId",
          "type": "bytes32"
        },
        {
          "indexed": false,
          "internalType": "bool",
          "name": "sameBalls",
          "type": "bool"
        }
      ],
      "name": "FulfillSameBalls",
      "type": "event"
    },
    {
      "anonymous": false,
      "inputs": [
        {
          "indexed": true,
          "internalType": "bytes32",
          "name": "requestId",
          "type": "bytes32"
        },
        {
          "indexed": false,
          "internalType": "bytes32",
          "name": "state",
          "type": "bytes32"
        }
      ],
      "name": "FulfillState",
      "type": "event"
    },
    {
      "anonymous": false,
      "inputs": [
        {
          "indexed": true,
          "internalType": "address",
          "name": "previousOwner",
          "type": "address"
        },
        {
          "indexed": true,
          "internalType": "address",
          "name": "newOwner",
          "type": "address"
        }
      ],
      "name": "OwnershipTransferred",
      "type": "event"
    },
    {
      "anonymous": false,
      "inputs": [
        {
          "indexed": true,
          "internalType": "bytes32",
          "name": "requestId",
          "type": "bytes32"
        }
      ],
      "name": "RequestBonusDrawn",
      "type": "event"
    },
    {
      "anonymous": false,
      "inputs": [
        {
          "indexed": true,
          "internalType": "bytes32",
          "name": "requestId",
          "type": "bytes32"
        }
      ],
      "name": "RequestBonusMax",
      "type": "event"
    },
    {
      "anonymous": false,
      "inputs": [
        {
          "indexed": true,
          "internalType": "bytes32",
          "name": "requestId",
          "type": "bytes32"
        }
      ],
      "name": "RequestBonusMin",
      "type": "event"
    },
    {
      "anonymous": false,
      "inputs": [
        {
          "indexed": true,
          "internalType": "bytes32",
          "name": "requestId",
          "type": "bytes32"
        }
      ],
      "name": "RequestCountry",
      "type": "event"
    },
    {
      "anonymous": false,
      "inputs": [
        {
          "indexed": true,
          "internalType": "bytes32",
          "name": "requestId",
          "type": "bytes32"
        }
      ],
      "name": "RequestDigits",
      "type": "event"
    },
    {
      "anonymous": false,
      "inputs": [
        {
          "indexed": true,
          "internalType": "bytes32",
          "name": "requestId",
          "type": "bytes32"
        }
      ],
      "name": "RequestDrawn",
      "type": "event"
    },
    {
      "anonymous": false,
      "inputs": [
        {
          "indexed": true,
          "internalType": "bytes32",
          "name": "requestId",
          "type": "bytes32"
        }
      ],
      "name": "RequestMainDrawn",
      "type": "event"
    },
    {
      "anonymous": false,
      "inputs": [
        {
          "indexed": true,
          "internalType": "bytes32",
          "name": "requestId",
          "type": "bytes32"
        }
      ],
      "name": "RequestMainMax",
      "type": "event"
    },
    {
      "anonymous": false,
      "inputs": [
        {
          "indexed": true,
          "internalType": "bytes32",
          "name": "requestId",
          "type": "bytes32"
        }
      ],
      "name": "RequestMainMin",
      "type": "event"
    },
    {
      "anonymous": false,
      "inputs": [
        {
          "indexed": true,
          "internalType": "bytes32",
          "name": "requestId",
          "type": "bytes32"
        }
      ],
      "name": "RequestName",
      "type": "event"
    },
    {
      "anonymous": false,
      "inputs": [
        {
          "indexed": true,
          "internalType": "bytes32",
          "name": "requestId",
          "type": "bytes32"
        }
      ],
      "name": "RequestSameBalls",
      "type": "event"
    },
    {
      "anonymous": false,
      "inputs": [
        {
          "indexed": true,
          "internalType": "bytes32",
          "name": "requestId",
          "type": "bytes32"
        }
      ],
      "name": "RequestState",
      "type": "event"
    },
    {
      "inputs": [],
      "name": "game",
      "outputs": [
        {
          "internalType": "bytes32",
          "name": "",
          "type": "bytes32"
        }
      ],
      "stateMutability": "view",
      "type": "function",
      "constant": true
    },
    {
      "inputs": [
        {
          "internalType": "bytes32",
          "name": "",
          "type": "bytes32"
        }
      ],
      "name": "games",
      "outputs": [
        {
          "internalType": "bytes32",
          "name": "name",
          "type": "bytes32"
        },
        {
          "internalType": "bytes32",
          "name": "country",
          "type": "bytes32"
        },
        {
          "internalType": "bytes32",
          "name": "state",
          "type": "bytes32"
        },
        {
          "internalType": "uint256",
          "name": "mainMin",
          "type": "uint256"
        },
        {
          "internalType": "uint256",
          "name": "mainMax",
          "type": "uint256"
        },
        {
          "internalType": "uint256",
          "name": "mainDrawn",
          "type": "uint256"
        },
        {
          "internalType": "uint256",
          "name": "bonusMin",
          "type": "uint256"
        },
        {
          "internalType": "uint256",
          "name": "bonusMax",
          "type": "uint256"
        },
        {
          "internalType": "uint256",
          "name": "bonusDrawn",
          "type": "uint256"
        },
        {
          "internalType": "bool",
          "name": "sameBalls",
          "type": "bool"
        },
        {
          "internalType": "uint256",
          "name": "digits",
          "type": "uint256"
        },
        {
          "internalType": "uint256",
          "name": "drawn",
          "type": "uint256"
        },
        {
          "internalType": "uint256",
          "name": "duration",
          "type": "uint256"
        }
      ],
      "stateMutability": "view",
      "type": "function",
      "constant": true
    },
    {
      "inputs": [],
      "name": "oracleName",
      "outputs": [
        {
          "internalType": "bytes32",
          "name": "",
          "type": "bytes32"
        }
      ],
      "stateMutability": "view",
      "type": "function",
      "constant": true
    },
    {
      "inputs": [],
      "name": "owner",
      "outputs": [
        {
          "internalType": "address",
          "name": "",
          "type": "address"
        }
      ],
      "stateMutability": "view",
      "type": "function",
      "constant": true
    },
    {
      "inputs": [],
      "name": "renounceOwnership",
      "outputs": [],
      "stateMutability": "nonpayable",
      "type": "function"
    },
    {
      "inputs": [
        {
          "internalType": "address",
          "name": "newOwner",
          "type": "address"
        }
      ],
      "name": "transferOwnership",
      "outputs": [],
      "stateMutability": "nonpayable",
      "type": "function"
    },
    {
      "inputs": [],
      "name": "getChainlinkToken",
      "outputs": [
        {
          "internalType": "address",
          "name": "",
          "type": "address"
        }
      ],
      "stateMutability": "view",
      "type": "function",
      "constant": true
    },
    {
      "inputs": [
        {
          "internalType": "string",
          "name": "_apiKey",
          "type": "string"
        },
        {
          "internalType": "string",
          "name": "_game",
          "type": "string"
        }
      ],
      "name": "requestAll",
      "outputs": [],
      "stateMutability": "nonpayable",
      "type": "function"
    },
    {
      "inputs": [
        {
          "internalType": "string",
          "name": "_apiKey",
          "type": "string"
        },
        {
          "internalType": "string",
          "name": "_game",
          "type": "string"
        }
      ],
      "name": "requestName",
      "outputs": [],
      "stateMutability": "nonpayable",
      "type": "function"
    },
    {
      "inputs": [
        {
          "internalType": "bytes32",
          "name": "_requestId",
          "type": "bytes32"
        },
        {
          "internalType": "bytes32",
          "name": "_name",
          "type": "bytes32"
        }
      ],
      "name": "fulfillName",
      "outputs": [],
      "stateMutability": "nonpayable",
      "type": "function"
    },
    {
      "inputs": [
        {
          "internalType": "string",
          "name": "_apiKey",
          "type": "string"
        },
        {
          "internalType": "string",
          "name": "_game",
          "type": "string"
        }
      ],
      "name": "requestCountry",
      "outputs": [],
      "stateMutability": "nonpayable",
      "type": "function"
    },
    {
      "inputs": [
        {
          "internalType": "bytes32",
          "name": "_requestId",
          "type": "bytes32"
        },
        {
          "internalType": "bytes32",
          "name": "_country",
          "type": "bytes32"
        }
      ],
      "name": "fulfillCountry",
      "outputs": [],
      "stateMutability": "nonpayable",
      "type": "function"
    },
    {
      "inputs": [
        {
          "internalType": "string",
          "name": "_apiKey",
          "type": "string"
        },
        {
          "internalType": "string",
          "name": "_game",
          "type": "string"
        }
      ],
      "name": "requestState",
      "outputs": [],
      "stateMutability": "nonpayable",
      "type": "function"
    },
    {
      "inputs": [
        {
          "internalType": "bytes32",
          "name": "_requestId",
          "type": "bytes32"
        },
        {
          "internalType": "bytes32",
          "name": "_state",
          "type": "bytes32"
        }
      ],
      "name": "fulfillState",
      "outputs": [],
      "stateMutability": "nonpayable",
      "type": "function"
    },
    {
      "inputs": [
        {
          "internalType": "string",
          "name": "_apiKey",
          "type": "string"
        },
        {
          "internalType": "string",
          "name": "_game",
          "type": "string"
        }
      ],
      "name": "requestMainMin",
      "outputs": [],
      "stateMutability": "nonpayable",
      "type": "function"
    },
    {
      "inputs": [
        {
          "internalType": "bytes32",
          "name": "_requestId",
          "type": "bytes32"
        },
        {
          "internalType": "uint256",
          "name": "_mainMin",
          "type": "uint256"
        }
      ],
      "name": "fulfillMainMin",
      "outputs": [],
      "stateMutability": "nonpayable",
      "type": "function"
    },
    {
      "inputs": [
        {
          "internalType": "string",
          "name": "_apiKey",
          "type": "string"
        },
        {
          "internalType": "string",
          "name": "_game",
          "type": "string"
        }
      ],
      "name": "requestMainMax",
      "outputs": [],
      "stateMutability": "nonpayable",
      "type": "function"
    },
    {
      "inputs": [
        {
          "internalType": "bytes32",
          "name": "_requestId",
          "type": "bytes32"
        },
        {
          "internalType": "uint256",
          "name": "_mainMax",
          "type": "uint256"
        }
      ],
      "name": "fulfillMainMax",
      "outputs": [],
      "stateMutability": "nonpayable",
      "type": "function"
    },
    {
      "inputs": [
        {
          "internalType": "string",
          "name": "_apiKey",
          "type": "string"
        },
        {
          "internalType": "string",
          "name": "_game",
          "type": "string"
        }
      ],
      "name": "requestMainDrawn",
      "outputs": [],
      "stateMutability": "nonpayable",
      "type": "function"
    },
    {
      "inputs": [
        {
          "internalType": "bytes32",
          "name": "_requestId",
          "type": "bytes32"
        },
        {
          "internalType": "uint256",
          "name": "_mainDrawn",
          "type": "uint256"
        }
      ],
      "name": "fulfillMainDrawn",
      "outputs": [],
      "stateMutability": "nonpayable",
      "type": "function"
    },
    {
      "inputs": [
        {
          "internalType": "string",
          "name": "_apiKey",
          "type": "string"
        },
        {
          "internalType": "string",
          "name": "_game",
          "type": "string"
        }
      ],
      "name": "requestBonusMin",
      "outputs": [],
      "stateMutability": "nonpayable",
      "type": "function"
    },
    {
      "inputs": [
        {
          "internalType": "bytes32",
          "name": "_requestId",
          "type": "bytes32"
        },
        {
          "internalType": "uint256",
          "name": "_bonusMin",
          "type": "uint256"
        }
      ],
      "name": "fulfillBonusMin",
      "outputs": [],
      "stateMutability": "nonpayable",
      "type": "function"
    },
    {
      "inputs": [
        {
          "internalType": "string",
          "name": "_apiKey",
          "type": "string"
        },
        {
          "internalType": "string",
          "name": "_game",
          "type": "string"
        }
      ],
      "name": "requestBonusMax",
      "outputs": [],
      "stateMutability": "nonpayable",
      "type": "function"
    },
    {
      "inputs": [
        {
          "internalType": "bytes32",
          "name": "_requestId",
          "type": "bytes32"
        },
        {
          "internalType": "uint256",
          "name": "_bonusMax",
          "type": "uint256"
        }
      ],
      "name": "fulfillBonusMax",
      "outputs": [],
      "stateMutability": "nonpayable",
      "type": "function"
    },
    {
      "inputs": [
        {
          "internalType": "string",
          "name": "_apiKey",
          "type": "string"
        },
        {
          "internalType": "string",
          "name": "_game",
          "type": "string"
        }
      ],
      "name": "requestBonusDrawn",
      "outputs": [],
      "stateMutability": "nonpayable",
      "type": "function"
    },
    {
      "inputs": [
        {
          "internalType": "bytes32",
          "name": "_requestId",
          "type": "bytes32"
        },
        {
          "internalType": "uint256",
          "name": "_bonusDrawn",
          "type": "uint256"
        }
      ],
      "name": "fulfillBonusDrawn",
      "outputs": [],
      "stateMutability": "nonpayable",
      "type": "function"
    },
    {
      "inputs": [
        {
          "internalType": "string",
          "name": "_apiKey",
          "type": "string"
        },
        {
          "internalType": "string",
          "name": "_game",
          "type": "string"
        }
      ],
      "name": "requestSameBalls",
      "outputs": [],
      "stateMutability": "nonpayable",
      "type": "function"
    },
    {
      "inputs": [
        {
          "internalType": "bytes32",
          "name": "_requestId",
          "type": "bytes32"
        },
        {
          "internalType": "bool",
          "name": "_sameBalls",
          "type": "bool"
        }
      ],
      "name": "fulfillSameBalls",
      "outputs": [],
      "stateMutability": "nonpayable",
      "type": "function"
    },
    {
      "inputs": [
        {
          "internalType": "string",
          "name": "_apiKey",
          "type": "string"
        },
        {
          "internalType": "string",
          "name": "_game",
          "type": "string"
        }
      ],
      "name": "requestDigits",
      "outputs": [],
      "stateMutability": "nonpayable",
      "type": "function"
    },
    {
      "inputs": [
        {
          "internalType": "bytes32",
          "name": "_requestId",
          "type": "bytes32"
        },
        {
          "internalType": "uint256",
          "name": "_digits",
          "type": "uint256"
        }
      ],
      "name": "fulfillDigits",
      "outputs": [],
      "stateMutability": "nonpayable",
      "type": "function"
    },
    {
      "inputs": [
        {
          "internalType": "string",
          "name": "_apiKey",
          "type": "string"
        },
        {
          "internalType": "string",
          "name": "_game",
          "type": "string"
        }
      ],
      "name": "requestDrawn",
      "outputs": [],
      "stateMutability": "nonpayable",
      "type": "function"
    },
    {
      "inputs": [
        {
          "internalType": "bytes32",
          "name": "_requestId",
          "type": "bytes32"
        },
        {
          "internalType": "uint256",
          "name": "_drawn",
          "type": "uint256"
        }
      ],
      "name": "fulfillDrawn",
      "outputs": [],
      "stateMutability": "nonpayable",
      "type": "function"
    },
    {
      "inputs": [],
      "name": "withdrawLink",
      "outputs": [],
      "stateMutability": "nonpayable",
      "type": "function"
    },
    {
      "inputs": [
        {
          "internalType": "bytes32",
          "name": "_requestId",
          "type": "bytes32"
        },
        {
          "internalType": "uint256",
          "name": "_payment",
          "type": "uint256"
        },
        {
          "internalType": "bytes4",
          "name": "_callbackFunctionId",
          "type": "bytes4"
        },
        {
          "internalType": "uint256",
          "name": "_expiration",
          "type": "uint256"
        }
      ],
      "name": "cancelRequest",
      "outputs": [],
      "stateMutability": "nonpayable",
      "type": "function"
    }
  ],
  "bytecode": "0x60806040526001600455600780546001600160a01b031916732f90a6d021db21e1b2a077c5a37b3c7e75d15b7e1790557f35306663343231356638393434336431383562303631653564376166393439306008557f32396661396161313362663134363837383862376363346135303061343562386009557f3664393134656463333665313464366338383063396335356264613562633034600a5567016345785d8a0000600b55348015620000b457600080fd5b5060405162003d8438038062003d8483398181016040526040811015620000da57600080fd5b8101908080516040519392919084640100000000821115620000fb57600080fd5b9083019060208201858111156200011157600080fd5b82516401000000008111828201881017156200012c57600080fd5b82525081516020918201929091019080838360005b838110156200015b57818101518382015260200162000141565b50505050905090810190601f168015620001895780820380516001836020036101000a031916815260200191505b5060405260200151915060009050620001a162000223565b600680546001600160a01b0319166001600160a01b038316908117909155604051919250906000907f8be0079c531659141344cd1fd0a4f28419497f9722a3daafe3b4186f6b6457e0908290a350620001f962000227565b6200020482620002af565b600e8190556000908152600c60208190526040909120015550620002f5565b3390565b620002ad73c89bd4e1632d3a43cb03aaad5262cbe4038bc5716001600160a01b03166338cc48316040518163ffffffff1660e01b815260040160206040518083038186803b1580156200027957600080fd5b505afa1580156200028e573d6000803e3d6000fd5b505050506040513d6020811015620002a557600080fd5b5051620002d3565b565b80516000908290620002c6575060009050620002ce565b505060208101515b919050565b600280546001600160a01b0319166001600160a01b0392909216919091179055565b613a7f80620003056000396000f3fe608060405234801561001057600080fd5b50600436106102065760003560e01c80637560e0671161011a578063b0ad6ff0116100ad578063d680a5821161007c578063d680a58214610d71578063d93e4bdb14610d94578063ec65d0f814610db7578063f2fde38b14610df0578063f579f88214610e1657610206565b8063b0ad6ff014610b2f578063b523484b14610bed578063c3fe3e2814610cab578063cad1168514610cb357610206565b80639534952b116100e95780639534952b146108d257806396c159b2146108f55780639d4de9ea146109b3578063ad75efe614610a7157610206565b80637560e067146108855780637d11f020146108a85780638da5cb5b146108c25780638dc654a2146108ca57610206565b806338bda07d1161019d57806352c542411161016c57806352c54241146106bb5780635c586ae7146106de5780635f1e5c271461079c57806365862d44146107bf578063715018a61461087d57610206565b806338bda07d146104f757806339b7715a146105b5578063463e8cdb146105da57806350e199de1461069857610206565b80632290b49e116101d95780632290b49e146103d057806323260cc1146103f357806328d788a2146104165780632ec9057f146104d457610206565b806305135bf61461020b57806307bf8b82146102cb578063104379c9146102ee578063165d35e1146103ac575b600080fd5b6102c96004803603604081101561022157600080fd5b810190602081018135600160201b81111561023b57600080fd5b82018360208201111561024d57600080fd5b803590602001918460018302840111600160201b8311171561026e57600080fd5b919390929091602081019035600160201b81111561028b57600080fd5b82018360208201111561029d57600080fd5b803590602001918460018302840111600160201b831117156102be57600080fd5b509092509050610e9a565b005b6102c9600480360360408110156102e157600080fd5b508035906020013561104e565b6102c96004803603604081101561030457600080fd5b810190602081018135600160201b81111561031e57600080fd5b82018360208201111561033057600080fd5b803590602001918460018302840111600160201b8311171561035157600080fd5b919390929091602081019035600160201b81111561036e57600080fd5b82018360208201111561038057600080fd5b803590602001918460018302840111600160201b831117156103a157600080fd5b509092509050611125565b6103b461127f565b604080516001600160a01b039092168252519081900360200190f35b6102c9600480360360408110156103e657600080fd5b508035906020013561128e565b6102c96004803603604081101561040957600080fd5b5080359060200135611362565b6102c96004803603604081101561042c57600080fd5b810190602081018135600160201b81111561044657600080fd5b82018360208201111561045857600080fd5b803590602001918460018302840111600160201b8311171561047957600080fd5b919390929091602081019035600160201b81111561049657600080fd5b8201836020820111156104a857600080fd5b803590602001918460018302840111600160201b831117156104c957600080fd5b509092509050611439565b6102c9600480360360408110156104ea57600080fd5b50803590602001356114c3565b6102c96004803603604081101561050d57600080fd5b810190602081018135600160201b81111561052757600080fd5b82018360208201111561053957600080fd5b803590602001918460018302840111600160201b8311171561055a57600080fd5b919390929091602081019035600160201b81111561057757600080fd5b82018360208201111561058957600080fd5b803590602001918460018302840111600160201b831117156105aa57600080fd5b50909250905061159a565b6102c9600480360360408110156105cb57600080fd5b50803590602001351515611750565b6102c9600480360360408110156105f057600080fd5b810190602081018135600160201b81111561060a57600080fd5b82018360208201111561061c57600080fd5b803590602001918460018302840111600160201b8311171561063d57600080fd5b919390929091602081019035600160201b81111561065a57600080fd5b82018360208201111561066c57600080fd5b803590602001918460018302840111600160201b8311171561068d57600080fd5b509092509050611837565b6102c9600480360360408110156106ae57600080fd5b50803590602001356119e7565b6102c9600480360360408110156106d157600080fd5b5080359060200135611abe565b6102c9600480360360408110156106f457600080fd5b810190602081018135600160201b81111561070e57600080fd5b82018360208201111561072057600080fd5b803590602001918460018302840111600160201b8311171561074157600080fd5b919390929091602081019035600160201b81111561075e57600080fd5b82018360208201111561077057600080fd5b803590602001918460018302840111600160201b8311171561079157600080fd5b509092509050611b95565b6102c9600480360360408110156107b257600080fd5b5080359060200135611d4a565b6102c9600480360360408110156107d557600080fd5b810190602081018135600160201b8111156107ef57600080fd5b82018360208201111561080157600080fd5b803590602001918460018302840111600160201b8311171561082257600080fd5b919390929091602081019035600160201b81111561083f57600080fd5b82018360208201111561085157600080fd5b803590602001918460018302840111600160201b8311171561087257600080fd5b509092509050611e21565b6102c9611fd2565b6102c96004803603604081101561089b57600080fd5b508035906020013561207e565b6108b0612155565b60408051918252519081900360200190f35b6103b461215b565b6102c961216a565b6102c9600480360360408110156108e857600080fd5b5080359060200135612325565b6102c96004803603604081101561090b57600080fd5b810190602081018135600160201b81111561092557600080fd5b82018360208201111561093757600080fd5b803590602001918460018302840111600160201b8311171561095857600080fd5b919390929091602081019035600160201b81111561097557600080fd5b82018360208201111561098757600080fd5b803590602001918460018302840111600160201b831117156109a857600080fd5b5090925090506123fc565b6102c9600480360360408110156109c957600080fd5b810190602081018135600160201b8111156109e357600080fd5b8201836020820111156109f557600080fd5b803590602001918460018302840111600160201b83111715610a1657600080fd5b919390929091602081019035600160201b811115610a3357600080fd5b820183602082011115610a4557600080fd5b803590602001918460018302840111600160201b83111715610a6657600080fd5b5090925090506125ac565b6102c960048036036040811015610a8757600080fd5b810190602081018135600160201b811115610aa157600080fd5b820183602082011115610ab357600080fd5b803590602001918460018302840111600160201b83111715610ad457600080fd5b919390929091602081019035600160201b811115610af157600080fd5b820183602082011115610b0357600080fd5b803590602001918460018302840111600160201b83111715610b2457600080fd5b50909250905061275f565b6102c960048036036040811015610b4557600080fd5b810190602081018135600160201b811115610b5f57600080fd5b820183602082011115610b7157600080fd5b803590602001918460018302840111600160201b83111715610b9257600080fd5b919390929091602081019035600160201b811115610baf57600080fd5b820183602082011115610bc157600080fd5b803590602001918460018302840111600160201b83111715610be257600080fd5b509092509050612911565b6102c960048036036040811015610c0357600080fd5b810190602081018135600160201b811115610c1d57600080fd5b820183602082011115610c2f57600080fd5b803590602001918460018302840111600160201b83111715610c5057600080fd5b919390929091602081019035600160201b811115610c6d57600080fd5b820183602082011115610c7f57600080fd5b803590602001918460018302840111600160201b83111715610ca057600080fd5b509092509050612abd565b6108b0612c70565b6102c960048036036040811015610cc957600080fd5b810190602081018135600160201b811115610ce357600080fd5b820183602082011115610cf557600080fd5b803590602001918460018302840111600160201b83111715610d1657600080fd5b919390929091602081019035600160201b811115610d3357600080fd5b820183602082011115610d4557600080fd5b803590602001918460018302840111600160201b83111715610d6657600080fd5b509092509050612c76565b6102c960048036036040811015610d8757600080fd5b5080359060200135612e2a565b6102c960048036036040811015610daa57600080fd5b5080359060200135612f01565b6102c960048036036080811015610dcd57600080fd5b508035906020810135906001600160e01b03196040820135169060600135612fd8565b6102c960048036036020811015610e0657600080fd5b50356001600160a01b0316613046565b610e3360048036036020811015610e2c57600080fd5b5035613149565b604080519d8e5260208e019c909c528c8c019a909a5260608c019890985260808b019690965260a08a019490945260c089019290925260e0880152610100870152151561012086015261014085015261016084015261018083015251908190036101a00190f35b600e546000908152600c602052604090206006015415610ef5576040805162461bcd60e51b8152602060048201526011602482015270616c72656164792d676f742d76616c756560781b604482015290519081900360640190fd5b610efd613926565b600954610f129030635f1e5c2760e01b6131bc565b9050610fa66040518060400160405280600381526020016219d95d60ea1b8152508686868660405160200180806139df60239139683f6170695f6b65793d60b81b6023820152602c01858580828437652667616d653d60d01b92019182525060060183838082843780830192505050945050505050604051602081830303815290604052836131e19092919063ffffffff16565b610ff8604051806040016040528060048152602001630e0c2e8d60e31b815250604051806040016040528060098152602001683137b73ab9afb6b4b760b91b815250836131e19092919063ffffffff16565b600754600b54600091611018916001600160a01b03909116908490613204565b60405190915081907f364b8eafdaf23d59dcb02001b1adf0aa1ca9f5268e2fde6e2a9bd4db45d1852690600090a2505050505050565b60008281526005602052604090205482906001600160a01b031633146110a55760405162461bcd60e51b8152600401808060200182810382526028815260200180613a026028913960400191505060405180910390fd5b60008181526005602052604080822080546001600160a01b0319169055518291600080516020613a2a83398151915291a260408051838152905184917f977502b5f2fa4ba2d067f17bde5f52003acd67d4e0331b2e2f55183e824a5387919081900360200190a250600e546000908152600c60205260409020600b015550565b61112d613926565b600a546111429030631cdbb8ad60e11b6131bc565b90506111d66040518060400160405280600381526020016219d95d60ea1b8152508686868660405160200180806139df60239139683f6170695f6b65793d60b81b6023820152602c01858580828437652667616d653d60d01b92019182525060060183838082843780830192505050945050505050604051602081830303815290604052836131e19092919063ffffffff16565b611229604051806040016040528060048152602001630e0c2e8d60e31b8152506040518060400160405280600a81526020016973616d655f62616c6c7360b01b815250836131e19092919063ffffffff16565b600754600b54600091611249916001600160a01b03909116908490613204565b60405190915081907ff3df70b212cab675d99f1aeb1bab52d372e304459354bf54982ba358625853de90600090a2505050505050565b60006112896133d2565b905090565b60008281526005602052604090205482906001600160a01b031633146112e55760405162461bcd60e51b8152600401808060200182810382526028815260200180613a026028913960400191505060405180910390fd5b60008181526005602052604080822080546001600160a01b0319169055518291600080516020613a2a83398151915291a260408051838152905184917f6778df88d6958953a763a2c051bdb52af6428d34877e42f4a207d44dd143d6eb919081900360200190a250600e546000908152600c602052604090205550565b60008281526005602052604090205482906001600160a01b031633146113b95760405162461bcd60e51b8152600401808060200182810382526028815260200180613a026028913960400191505060405180910390fd5b60008181526005602052604080822080546001600160a01b0319169055518291600080516020613a2a83398151915291a260408051838152905184917fcc027700e1c4d4471c6a6ef8d36f9731984aa0e3da6308bd481544e4275beac4919081900360200190a250600e546000908152600c602052604090206005015550565b61144584848484612911565b6114518484848461275f565b61145d848484846123fc565b61146984848484612abd565b611475848484846125ac565b61148184848484611b95565b61148d84848484610e9a565b61149984848484612c76565b6114a58484848461159a565b6114b184848484611125565b6114bd84848484611e21565b50505050565b60008281526005602052604090205482906001600160a01b0316331461151a5760405162461bcd60e51b8152600401808060200182810382526028815260200180613a026028913960400191505060405180910390fd5b60008181526005602052604080822080546001600160a01b0319169055518291600080516020613a2a83398151915291a260408051838152905184917ffe4dccb14b9f0508d6f8bc4ae0a1d72a51a53c78233f84ccc346cba176259c76919081900360200190a250600e546000908152600c60205260409020600a015550565b600e546000908152600c6020526040902060080154156115f5576040805162461bcd60e51b8152602060048201526011602482015270616c72656164792d676f742d76616c756560781b604482015290519081900360640190fd5b6115fd613926565b6009546116129030636b4052c160e11b6131bc565b90506116a66040518060400160405280600381526020016219d95d60ea1b8152508686868660405160200180806139df60239139683f6170695f6b65793d60b81b6023820152602c01858580828437652667616d653d60d01b92019182525060060183838082843780830192505050945050505050604051602081830303815290604052836131e19092919063ffffffff16565b6116fa604051806040016040528060048152602001630e0c2e8d60e31b8152506040518060400160405280600b81526020016a3137b73ab9afb23930bbb760a91b815250836131e19092919063ffffffff16565b600754600b5460009161171a916001600160a01b03909116908490613204565b60405190915081907f87d17e8e641a22a5a3d47d1170bf14c59714280a235e48d4b55df8cd2685656490600090a2505050505050565b60008281526005602052604090205482906001600160a01b031633146117a75760405162461bcd60e51b8152600401808060200182810382526028815260200180613a026028913960400191505060405180910390fd5b60008181526005602052604080822080546001600160a01b0319169055518291600080516020613a2a83398151915291a2604080518315158152905184917f94aeaca5d5206c363ab3e6ca9271d9d31055f4e2ea42ba29e64dd64a6c8cf940919081900360200190a250600e546000908152600c60205260409020600901805460ff191691151591909117905550565b600e546000908152600c60205260409020600b015415611892576040805162461bcd60e51b8152602060048201526011602482015270616c72656164792d676f742d76616c756560781b604482015290519081900360640190fd5b61189a613926565b6009546118af90306303dfc5c160e11b6131bc565b90506119436040518060400160405280600381526020016219d95d60ea1b8152508686868660405160200180806139df60239139683f6170695f6b65793d60b81b6023820152602c01858580828437652667616d653d60d01b92019182525060060183838082843780830192505050945050505050604051602081830303815290604052836131e19092919063ffffffff16565b611991604051806040016040528060048152602001630e0c2e8d60e31b81525060405180604001604052806005815260200164323930bbb760d91b815250836131e19092919063ffffffff16565b600754600b546000916119b1916001600160a01b03909116908490613204565b60405190915081907fcc8efc813054ce3c2d505ad388ecc0904439ab796206608cae14519d00cb24eb90600090a2505050505050565b60008281526005602052604090205482906001600160a01b03163314611a3e5760405162461bcd60e51b8152600401808060200182810382526028815260200180613a026028913960400191505060405180910390fd5b60008181526005602052604080822080546001600160a01b0319169055518291600080516020613a2a83398151915291a260408051838152905184917f1b0295b64ada1f1118a8b279999b26dc287103be444b8238d25740a19d905820919081900360200190a250600e546000908152600c602052604090206003015550565b60008281526005602052604090205482906001600160a01b03163314611b155760405162461bcd60e51b8152600401808060200182810382526028815260200180613a026028913960400191505060405180910390fd5b60008181526005602052604080822080546001600160a01b0319169055518291600080516020613a2a83398151915291a260408051838152905184917f393edb4985014f77ab030338af3a73dd8c17e47f3ace167c02935becd052f438919081900360200190a250600e546000908152600c602052604090206007015550565b600e546000908152600c602052604090206005015415611bf0576040805162461bcd60e51b8152602060048201526011602482015270616c72656164792d676f742d76616c756560781b604482015290519081900360640190fd5b611bf8613926565b600954611c0d90306323260cc160e01b6131bc565b9050611ca16040518060400160405280600381526020016219d95d60ea1b8152508686868660405160200180806139df60239139683f6170695f6b65793d60b81b6023820152602c01858580828437652667616d653d60d01b92019182525060060183838082843780830192505050945050505050604051602081830303815290604052836131e19092919063ffffffff16565b611cf4604051806040016040528060048152602001630e0c2e8d60e31b8152506040518060400160405280600a81526020016936b0b4b72fb23930bbb760b11b815250836131e19092919063ffffffff16565b600754600b54600091611d14916001600160a01b03909116908490613204565b60405190915081907f0e887fe71072fb1ec7bd580533b4d3d616c9818a8ebea7b29322606b38c46ec190600090a2505050505050565b60008281526005602052604090205482906001600160a01b03163314611da15760405162461bcd60e51b8152600401808060200182810382526028815260200180613a026028913960400191505060405180910390fd5b60008181526005602052604080822080546001600160a01b0319169055518291600080516020613a2a83398151915291a260408051838152905184917f71ffd6f1d21719b7e9af85969d6949aa517f96882a60e94aab4633172113d98b919081900360200190a250600e546000908152600c602052604090206006015550565b600e546000908152600c60205260409020600a015415611e7c576040805162461bcd60e51b8152602060048201526011602482015270616c72656164792d676f742d76616c756560781b604482015290519081900360640190fd5b611e84613926565b600954611e999030632ec9057f60e01b6131bc565b9050611f2d6040518060400160405280600381526020016219d95d60ea1b8152508686868660405160200180806139df60239139683f6170695f6b65793d60b81b6023820152602c01858580828437652667616d653d60d01b92019182525060060183838082843780830192505050945050505050604051602081830303815290604052836131e19092919063ffffffff16565b611f7c604051806040016040528060048152602001630e0c2e8d60e31b8152506040518060400160405280600681526020016564696769747360d01b815250836131e19092919063ffffffff16565b600754600b54600091611f9c916001600160a01b03909116908490613204565b60405190915081907fe2045b312452792adeb9f466834cfc02f348fcd8f47aebd1b77eb9bb58e3e0bc90600090a2505050505050565b611fda6133e1565b6001600160a01b0316611feb61215b565b6001600160a01b031614612034576040805162461bcd60e51b815260206004820181905260248201526000805160206139bf833981519152604482015290519081900360640190fd5b6006546040516000916001600160a01b0316907f8be0079c531659141344cd1fd0a4f28419497f9722a3daafe3b4186f6b6457e0908390a3600680546001600160a01b0319169055565b60008281526005602052604090205482906001600160a01b031633146120d55760405162461bcd60e51b8152600401808060200182810382526028815260200180613a026028913960400191505060405180910390fd5b60008181526005602052604080822080546001600160a01b0319169055518291600080516020613a2a83398151915291a260408051838152905184917ff328c165dd6c1cb0e00208fc2db2606ab0d65737ac921a681f622e2058a8e732919081900360200190a250600e546000908152600c602052604090206002015550565b600d5481565b6006546001600160a01b031690565b6121726133e1565b6001600160a01b031661218361215b565b6001600160a01b0316146121cc576040805162461bcd60e51b815260206004820181905260248201526000805160206139bf833981519152604482015290519081900360640190fd5b60006121d66133d2565b9050806001600160a01b031663a9059cbb33836001600160a01b03166370a08231306040518263ffffffff1660e01b815260040180826001600160a01b0316815260200191505060206040518083038186803b15801561223557600080fd5b505afa158015612249573d6000803e3d6000fd5b505050506040513d602081101561225f57600080fd5b5051604080516001600160e01b031960e086901b1681526001600160a01b03909316600484015260248301919091525160448083019260209291908290030181600087803b1580156122b057600080fd5b505af11580156122c4573d6000803e3d6000fd5b505050506040513d60208110156122da57600080fd5b5051612322576040805162461bcd60e51b81526020600482015260126024820152712ab730b13632903a37903a3930b739b332b960711b604482015290519081900360640190fd5b50565b60008281526005602052604090205482906001600160a01b0316331461237c5760405162461bcd60e51b8152600401808060200182810382526028815260200180613a026028913960400191505060405180910390fd5b60008181526005602052604080822080546001600160a01b0319169055518291600080516020613a2a83398151915291a260408051838152905184917fbbfe69c9c2a8b624574391d017806e82dcfef706fbf81393cf2dc09db5ae6d57919081900360200190a250600e546000908152600c602052604090206001015550565b600e546000908152600c602052604090206002015415612457576040805162461bcd60e51b8152602060048201526011602482015270616c72656164792d676f742d76616c756560781b604482015290519081900360640190fd5b61245f613926565b6008546124749030637560e06760e01b6131bc565b90506125086040518060400160405280600381526020016219d95d60ea1b8152508686868660405160200180806139df60239139683f6170695f6b65793d60b81b6023820152602c01858580828437652667616d653d60d01b92019182525060060183838082843780830192505050945050505050604051602081830303815290604052836131e19092919063ffffffff16565b612556604051806040016040528060048152602001630e0c2e8d60e31b81525060405180604001604052806005815260200164737461746560d81b815250836131e19092919063ffffffff16565b600754600b54600091612576916001600160a01b03909116908490613204565b60405190915081907f0f8c06667d4e3910cdc415632786587b1dae295fb5a8463c605d3f7306aacc7790600090a2505050505050565b600e546000908152600c602052604090206004015415612607576040805162461bcd60e51b8152602060048201526011602482015270616c72656164792d676f742d76616c756560781b604482015290519081900360640190fd5b61260f613926565b600954612624903063d93e4bdb60e01b6131bc565b90506126b86040518060400160405280600381526020016219d95d60ea1b8152508686868660405160200180806139df60239139683f6170695f6b65793d60b81b6023820152602c01858580828437652667616d653d60d01b92019182525060060183838082843780830192505050945050505050604051602081830303815290604052836131e19092919063ffffffff16565b612709604051806040016040528060048152602001630e0c2e8d60e31b815250604051806040016040528060088152602001670dac2d2dcbedac2f60c31b815250836131e19092919063ffffffff16565b600754600b54600091612729916001600160a01b03909116908490613204565b60405190915081907f2b4f1d9ce0988480a92b4d94449ca2edf508ef97a0a89139b46ce61b2db8abef90600090a2505050505050565b600e546000908152600c6020526040902060010154156127ba576040805162461bcd60e51b8152602060048201526011602482015270616c72656164792d676f742d76616c756560781b604482015290519081900360640190fd5b6127c2613926565b6008546127d79030639534952b60e01b6131bc565b905061286b6040518060400160405280600381526020016219d95d60ea1b8152508686868660405160200180806139df60239139683f6170695f6b65793d60b81b6023820152602c01858580828437652667616d653d60d01b92019182525060060183838082843780830192505050945050505050604051602081830303815290604052836131e19092919063ffffffff16565b6128bb604051806040016040528060048152602001630e0c2e8d60e31b81525060405180604001604052806007815260200166636f756e74727960c81b815250836131e19092919063ffffffff16565b600754600b546000916128db916001600160a01b03909116908490613204565b60405190915081907f825fc80fb65289b11febee3e5689b41d42f5ad3292d9037c09262f77c50cf5c690600090a2505050505050565b600e546000908152600c602052604090205415612969576040805162461bcd60e51b8152602060048201526011602482015270616c72656164792d676f742d76616c756560781b604482015290519081900360640190fd5b612971613926565b60085461298690306311485a4f60e11b6131bc565b9050612a1a6040518060400160405280600381526020016219d95d60ea1b8152508686868660405160200180806139df60239139683f6170695f6b65793d60b81b6023820152602c01858580828437652667616d653d60d01b92019182525060060183838082843780830192505050945050505050604051602081830303815290604052836131e19092919063ffffffff16565b612a67604051806040016040528060048152602001630e0c2e8d60e31b815250604051806040016040528060048152602001636e616d6560e01b815250836131e19092919063ffffffff16565b600754600b54600091612a87916001600160a01b03909116908490613204565b60405190915081907f7752e7d3023dbf323b9059f9ec72b68dc5313db254646434c2f6b42c2181bfa890600090a2505050505050565b600e546000908152600c602052604090206003015415612b18576040805162461bcd60e51b8152602060048201526011602482015270616c72656164792d676f742d76616c756560781b604482015290519081900360640190fd5b612b20613926565b600954612b359030632870ccef60e11b6131bc565b9050612bc96040518060400160405280600381526020016219d95d60ea1b8152508686868660405160200180806139df60239139683f6170695f6b65793d60b81b6023820152602c01858580828437652667616d653d60d01b92019182525060060183838082843780830192505050945050505050604051602081830303815290604052836131e19092919063ffffffff16565b612c1a604051806040016040528060048152602001630e0c2e8d60e31b8152506040518060400160405280600881526020016736b0b4b72fb6b4b760c11b815250836131e19092919063ffffffff16565b600754600b54600091612c3a916001600160a01b03909116908490613204565b60405190915081907f1a667e7789bf473655dd00c5247baae0285b3158b93166901c2036354d0495e890600090a2505050505050565b600e5481565b600e546000908152600c602052604090206007015415612cd1576040805162461bcd60e51b8152602060048201526011602482015270616c72656164792d676f742d76616c756560781b604482015290519081900360640190fd5b612cd9613926565b600954612cee90306352c5424160e01b6131bc565b9050612d826040518060400160405280600381526020016219d95d60ea1b8152508686868660405160200180806139df60239139683f6170695f6b65793d60b81b6023820152602c01858580828437652667616d653d60d01b92019182525060060183838082843780830192505050945050505050604051602081830303815290604052836131e19092919063ffffffff16565b612dd4604051806040016040528060048152602001630e0c2e8d60e31b815250604051806040016040528060098152602001680c4dedceae6bedac2f60bb1b815250836131e19092919063ffffffff16565b600754600b54600091612df4916001600160a01b03909116908490613204565b60405190915081907f7dcbc1c9051c23385b211924f182346321053e3c1d392916a9d2060ede779efd90600090a2505050505050565b60008281526005602052604090205482906001600160a01b03163314612e815760405162461bcd60e51b8152600401808060200182810382526028815260200180613a026028913960400191505060405180910390fd5b60008181526005602052604080822080546001600160a01b0319169055518291600080516020613a2a83398151915291a260408051838152905184917f4fa715638cf44f72e29cd8e5749de828ce624d1e82fe0c4d24d194dfcc200c2d919081900360200190a250600e546000908152600c602052604090206008015550565b60008281526005602052604090205482906001600160a01b03163314612f585760405162461bcd60e51b8152600401808060200182810382526028815260200180613a026028913960400191505060405180910390fd5b60008181526005602052604080822080546001600160a01b0319169055518291600080516020613a2a83398151915291a260408051838152905184917facaaaeb304094fde5f0524eb9b87768e15fd51ae106bac1f82395ccd680b1e41919081900360200190a250600e546000908152600c602052604090206004015550565b612fe06133e1565b6001600160a01b0316612ff161215b565b6001600160a01b03161461303a576040805162461bcd60e51b815260206004820181905260248201526000805160206139bf833981519152604482015290519081900360640190fd5b6114bd848484846133e5565b61304e6133e1565b6001600160a01b031661305f61215b565b6001600160a01b0316146130a8576040805162461bcd60e51b815260206004820181905260248201526000805160206139bf833981519152604482015290519081900360640190fd5b6001600160a01b0381166130ed5760405162461bcd60e51b81526004018080602001828103825260268152602001806139766026913960400191505060405180910390fd5b6006546040516001600160a01b038084169216907f8be0079c531659141344cd1fd0a4f28419497f9722a3daafe3b4186f6b6457e090600090a3600680546001600160a01b0319166001600160a01b0392909216919091179055565b600c6020528060005260406000206000915090508060000154908060010154908060020154908060030154908060040154908060050154908060060154908060070154908060080154908060090160009054906101000a900460ff169080600a01549080600b01549080600c015490508d565b6131c4613926565b6131cc613926565b6131d8818686866134bd565b95945050505050565b60808301516131f090836134fa565b60808301516131ff90826134fa565b505050565b6004546040805130606090811b60208084019190915260348084018690528451808503909101815260549093018452825192810192909220908601939093526000838152600590915281812080546001600160a01b0319166001600160a01b038816179055905182917fb5e6e01e79f91267dc17b4e6314d5d4d03593d2ceee0fbb452b750bd70ea5af991a26002546001600160a01b0316634000aea085846132ac87613511565b6040518463ffffffff1660e01b815260040180846001600160a01b0316815260200183815260200180602001828103825283818151815260200191508051906020019080838360005b8381101561330d5781810151838201526020016132f5565b50505050905090810190601f16801561333a5780820380516001836020036101000a031916815260200191505b50945050505050602060405180830381600087803b15801561335b57600080fd5b505af115801561336f573d6000803e3d6000fd5b505050506040513d602081101561338557600080fd5b50516133c25760405162461bcd60e51b815260040180806020018281038252602381526020018061399c6023913960400191505060405180910390fd5b6004805460010190559392505050565b6002546001600160a01b031690565b3390565b60008481526005602052604080822080546001600160a01b0319811690915590516001600160a01b039091169186917fe1fe3afa0f7f761ff0a8b89086790efd5140d2907ebd5b7ff6bfcb5e075fd4c59190a260408051636ee4d55360e01b815260048101879052602481018690526001600160e01b0319851660448201526064810184905290516001600160a01b03831691636ee4d55391608480830192600092919082900301818387803b15801561349e57600080fd5b505af11580156134b2573d6000803e3d6000fd5b505050505050505050565b6134c5613926565b6134d58560800151610100613635565b50509183526001600160a01b031660208301526001600160e01b031916604082015290565b6135078260038351613675565b6131ff8282613749565b6060634042994660e01b6000808460000151856020015186604001518760600151600189608001516000015160405160240180896001600160a01b03168152602001888152602001878152602001866001600160a01b03168152602001856001600160e01b031916815260200184815260200183815260200180602001828103825283818151815260200191508051906020019080838360005b838110156135c35781810151838201526020016135ab565b50505050905090810190601f1680156135f05780820380516001836020036101000a031916815260200191505b5060408051601f198184030181529190526020810180516001600160e01b03166001600160e01b0319909d169c909c17909b5250989950505050505050505050919050565b61363d61395b565b60208206156136525760208206602003820191505b506020808301829052604080518085526000815283019091019052815b92915050565b60178111613696576136908360e0600585901b16831761376a565b506131ff565b60ff81116136c0576136b3836018611fe0600586901b161761376a565b5061369083826001613782565b61ffff81116136eb576136de836019611fe0600586901b161761376a565b5061369083826002613782565b63ffffffff81116137185761370b83601a611fe0600586901b161761376a565b5061369083826004613782565b67ffffffffffffffff81116131ff5761373c83601b611fe0600586901b161761376a565b506114bd83826008613782565b61375161395b565b613763838460000151518485516137a3565b9392505050565b61377261395b565b613763838460000151518461384f565b61378a61395b565b61379b84856000015151858561389a565b949350505050565b6137ab61395b565b82518211156137b957600080fd5b846020015182850111156137e3576137e3856137db87602001518786016138f8565b60020261390f565b6000808651805187602083010193508088870111156138025787860182525b505050602084015b602084106138295780518252601f19909301926020918201910161380a565b51815160001960208690036101000a019081169019919091161790525083949350505050565b61385761395b565b836020015183106138735761387384856020015160020261390f565b835180516020858301018481535080851415613890576001810182525b5093949350505050565b6138a261395b565b846020015184830111156138bf576138bf8585840160020261390f565b60006001836101000a0390508551838682010185831982511617815250805184870111156138ed5783860181525b509495945050505050565b60008183111561390957508161366f565b50919050565b815161391b8383613635565b506114bd8382613749565b6040805160a08101825260008082526020820181905291810182905260608101919091526080810161395661395b565b905290565b60405180604001604052806060815260200160008152509056fe4f776e61626c653a206e6577206f776e657220697320746865207a65726f2061646472657373756e61626c6520746f207472616e73666572416e6443616c6c20746f206f7261636c654f776e61626c653a2063616c6c6572206973206e6f7420746865206f776e657268747470733a2f2f7777772e6d616761796f2e636f6d2f6170692f696e666f2e706870536f75726365206d75737420626520746865206f7261636c65206f662074686520726571756573747cc135e0cebb02c3480ae5d74d377283180a2601f8f644edf7987b009316c63aa26469706673582212201c567ce5c912cbc0206227d32f2024ad2436c2156914710b157cbdd845d5785e64736f6c634300060c0033",
  "immutableReferences": {},
  "source": "// SPDX-License-Identifier: UNLICENSED\npragma solidity 0.6.12;\n\nimport \"@chainlink/contracts/src/v0.6/ChainlinkClient.sol\";\nimport \"@openzeppelin/contracts/access/Ownable.sol\";\n\ncontract MagayoOracle is ChainlinkClient, Ownable {\n  event RequestName(bytes32 indexed requestId);\n\n  event RequestCountry(bytes32 indexed requestId);\n\n  event RequestState(bytes32 indexed requestId);\n\n  event RequestMainMin(bytes32 indexed requestId);\n\n  event RequestMainMax(bytes32 indexed requestId);\n\n  event RequestMainDrawn(bytes32 indexed requestId);\n\n  event RequestBonusMin(bytes32 indexed requestId);\n\n  event RequestBonusMax(bytes32 indexed requestId);\n\n  event RequestBonusDrawn(bytes32 indexed requestId);\n\n  event RequestSameBalls(bytes32 indexed requestId);\n\n  event RequestDigits(bytes32 indexed requestId);\n\n  event RequestDrawn(bytes32 indexed requestId);\n\n  // event RequestIsOption(\n  //   bytes32 indexed requestId\n  // );\n\n  // event RequestOptionDesc(\n  //   bytes32 indexed requestId\n  // );\n\n  // event RequestNextDraw(\n  //   bytes32 indexed requestId\n  // );\n\n  event FulfillName(bytes32 indexed requestId, bytes32 name);\n\n  event FulfillCountry(bytes32 indexed requestId, bytes32 country);\n\n  event FulfillState(bytes32 indexed requestId, bytes32 state);\n\n  event FulfillMainMin(bytes32 indexed requestId, uint256 mainMin);\n\n  event FulfillMainMax(bytes32 indexed requestId, uint256 mainMax);\n\n  event FulfillMainDrawn(bytes32 indexed requestId, uint256 mainDrawn);\n\n  event FulfillBonusMin(bytes32 indexed requestId, uint256 bonusMin);\n\n  event FulfillBonusMax(bytes32 indexed requestId, uint256 bonusMax);\n\n  event FulfillBonusDrawn(bytes32 indexed requestId, uint256 bonusDrawn);\n\n  event FulfillSameBalls(bytes32 indexed requestId, bool sameBalls);\n\n  event FulfillDigits(bytes32 indexed requestId, uint256 digits);\n\n  event FulfillDrawn(bytes32 indexed requestId, uint256 drawn);\n\n  // event FulfillIsOption(\n  //   bytes32 indexed requestId,\n  //   bool isOption\n  // );\n\n  // event FulfillOptionDesc(\n  //   bytes32 indexed requestId,\n  //   bytes32 optionDesc\n  // );\n\n  // event FulfillNextDraw(\n  //   bytes32 indexed requestId,\n  //   uint256 nextDraw\n  // );\n\n  struct Game {\n    bytes32 name;\n    bytes32 country;\n    bytes32 state;\n    uint256 mainMin;\n    uint256 mainMax;\n    uint256 mainDrawn;\n    uint256 bonusMin;\n    uint256 bonusMax;\n    uint256 bonusDrawn;\n    bool sameBalls;\n    uint256 digits;\n    uint256 drawn;\n    uint256 duration;\n    // bool isOption;\n    // bytes32 optionDesc;\n    // uint256 nextDraw;\n  }\n\n  // Kovan Oracle Info\n  address oracleAddress = 0x2f90A6D021db21e1B2A077c5a37B3C7E75D15b7e;\n  bytes32 bytes32JobId = \"50fc4215f89443d185b061e5d7af9490\";\n  bytes32 uint256JobId = \"29fa9aa13bf1468788b7cc4a500a45b8\";\n  bytes32 boolJobId = \"6d914edc36e14d6c880c9c55bda5bc04\";\n\n  // Rinkeby Oracle Info\n  // address oracleAddress = 0x7AFe1118Ea78C1eae84ca8feE5C65Bc76CcF879e;\n  // bytes32 bytes32JobId = \"b0bde308282843d49a3a8d2dd2464af1\";\n  // bytes32 uint256JobId = \"6d1bfe27e7034b1d87b5270556b17277\";\n  // bytes32 boolJobId = \"4ce9b71a1ac94abcad1ff9198e760b8c\";\n\n  uint256 oraclePayment = 0.1 * 10**18; // 0.1 LINK;\n\n  mapping(bytes32 => Game) public games;\n\n  bytes32 public oracleName;\n  bytes32 public game;\n\n  constructor(string memory _game, uint256 _duration) public {\n    setPublicChainlinkToken();\n\n    // Game\n    game = stringToBytes32(_game);\n    // Should get from requestNextDraw but the conversion is difficult\n    games[game].duration = _duration;\n  }\n\n  /**\n   * @notice Returns the address of the LINK token\n   * @dev This is the public implementation for chainlinkTokenAddress, which is\n   * an internal method of the ChainlinkClient contract\n   */\n  function getChainlinkToken() public view returns (address) {\n    return chainlinkTokenAddress();\n  }\n\n  function requestAll(string calldata _apiKey, string calldata _game) external {\n    requestName(_apiKey, _game);\n    requestCountry(_apiKey, _game);\n    requestState(_apiKey, _game);\n    requestMainMin(_apiKey, _game);\n    requestMainMax(_apiKey, _game);\n    requestMainDrawn(_apiKey, _game);\n    requestBonusMin(_apiKey, _game);\n    requestBonusMax(_apiKey, _game);\n    requestBonusDrawn(_apiKey, _game);\n    requestSameBalls(_apiKey, _game);\n    requestDigits(_apiKey, _game);\n    // requestIsOption(_apiKey, _game);\n    // requestOptionDesc(_apiKey, _game);\n    // requestNextDraw(_apiKey, _game);\n  }\n\n  function requestName(string calldata _apiKey, string calldata _game) public {\n    require(games[game].name == 0, \"already-got-value\");\n    Chainlink.Request memory req = buildChainlinkRequest(\n      bytes32JobId,\n      address(this),\n      this.fulfillName.selector\n    );\n    req.add(\n      \"get\",\n      string(\n        abi.encodePacked(\n          \"https://www.magayo.com/api/info.php\",\n          \"?api_key=\",\n          _apiKey,\n          \"&game=\",\n          _game\n        )\n      )\n    );\n    req.add(\"path\", \"name\");\n    bytes32 requestId = sendChainlinkRequestTo(\n      oracleAddress,\n      req,\n      oraclePayment\n    );\n    emit RequestName(requestId);\n  }\n\n  function fulfillName(bytes32 _requestId, bytes32 _name)\n    external\n    recordChainlinkFulfillment(_requestId)\n  {\n    emit FulfillName(_requestId, _name);\n    games[game].name = _name;\n  }\n\n  function requestCountry(string calldata _apiKey, string calldata _game)\n    public\n  {\n    require(games[game].country == 0, \"already-got-value\");\n    Chainlink.Request memory req = buildChainlinkRequest(\n      bytes32JobId,\n      address(this),\n      this.fulfillCountry.selector\n    );\n    req.add(\n      \"get\",\n      string(\n        abi.encodePacked(\n          \"https://www.magayo.com/api/info.php\",\n          \"?api_key=\",\n          _apiKey,\n          \"&game=\",\n          _game\n        )\n      )\n    );\n    req.add(\"path\", \"country\");\n    bytes32 requestId = sendChainlinkRequestTo(\n      oracleAddress,\n      req,\n      oraclePayment\n    );\n    emit RequestCountry(requestId);\n  }\n\n  function fulfillCountry(bytes32 _requestId, bytes32 _country)\n    external\n    recordChainlinkFulfillment(_requestId)\n  {\n    emit FulfillCountry(_requestId, _country);\n    games[game].country = _country;\n  }\n\n  function requestState(string calldata _apiKey, string calldata _game) public {\n    require(games[game].state == 0, \"already-got-value\");\n    Chainlink.Request memory req = buildChainlinkRequest(\n      bytes32JobId,\n      address(this),\n      this.fulfillState.selector\n    );\n    req.add(\n      \"get\",\n      string(\n        abi.encodePacked(\n          \"https://www.magayo.com/api/info.php\",\n          \"?api_key=\",\n          _apiKey,\n          \"&game=\",\n          _game\n        )\n      )\n    );\n    req.add(\"path\", \"state\");\n    bytes32 requestId = sendChainlinkRequestTo(\n      oracleAddress,\n      req,\n      oraclePayment\n    );\n    emit RequestState(requestId);\n  }\n\n  function fulfillState(bytes32 _requestId, bytes32 _state)\n    external\n    recordChainlinkFulfillment(_requestId)\n  {\n    emit FulfillState(_requestId, _state);\n    games[game].state = _state;\n  }\n\n  function requestMainMin(string calldata _apiKey, string calldata _game)\n    public\n  {\n    require(games[game].mainMin == 0, \"already-got-value\");\n    Chainlink.Request memory req = buildChainlinkRequest(\n      uint256JobId,\n      address(this),\n      this.fulfillMainMin.selector\n    );\n    req.add(\n      \"get\",\n      string(\n        abi.encodePacked(\n          \"https://www.magayo.com/api/info.php\",\n          \"?api_key=\",\n          _apiKey,\n          \"&game=\",\n          _game\n        )\n      )\n    );\n    req.add(\"path\", \"main_min\");\n    bytes32 requestId = sendChainlinkRequestTo(\n      oracleAddress,\n      req,\n      oraclePayment\n    );\n    emit RequestMainMin(requestId);\n  }\n\n  function fulfillMainMin(bytes32 _requestId, uint256 _mainMin)\n    external\n    recordChainlinkFulfillment(_requestId)\n  {\n    emit FulfillMainMin(_requestId, _mainMin);\n    games[game].mainMin = _mainMin;\n  }\n\n  function requestMainMax(string calldata _apiKey, string calldata _game)\n    public\n  {\n    require(games[game].mainMax == 0, \"already-got-value\");\n    Chainlink.Request memory req = buildChainlinkRequest(\n      uint256JobId,\n      address(this),\n      this.fulfillMainMax.selector\n    );\n    req.add(\n      \"get\",\n      string(\n        abi.encodePacked(\n          \"https://www.magayo.com/api/info.php\",\n          \"?api_key=\",\n          _apiKey,\n          \"&game=\",\n          _game\n        )\n      )\n    );\n    req.add(\"path\", \"main_max\");\n    bytes32 requestId = sendChainlinkRequestTo(\n      oracleAddress,\n      req,\n      oraclePayment\n    );\n    emit RequestMainMax(requestId);\n  }\n\n  function fulfillMainMax(bytes32 _requestId, uint256 _mainMax)\n    external\n    recordChainlinkFulfillment(_requestId)\n  {\n    emit FulfillMainMax(_requestId, _mainMax);\n    games[game].mainMax = _mainMax;\n  }\n\n  function requestMainDrawn(string calldata _apiKey, string calldata _game)\n    public\n  {\n    require(games[game].mainDrawn == 0, \"already-got-value\");\n    Chainlink.Request memory req = buildChainlinkRequest(\n      uint256JobId,\n      address(this),\n      this.fulfillMainDrawn.selector\n    );\n    req.add(\n      \"get\",\n      string(\n        abi.encodePacked(\n          \"https://www.magayo.com/api/info.php\",\n          \"?api_key=\",\n          _apiKey,\n          \"&game=\",\n          _game\n        )\n      )\n    );\n    req.add(\"path\", \"main_drawn\");\n    bytes32 requestId = sendChainlinkRequestTo(\n      oracleAddress,\n      req,\n      oraclePayment\n    );\n    emit RequestMainDrawn(requestId);\n  }\n\n  function fulfillMainDrawn(bytes32 _requestId, uint256 _mainDrawn)\n    external\n    recordChainlinkFulfillment(_requestId)\n  {\n    emit FulfillMainDrawn(_requestId, _mainDrawn);\n    games[game].mainDrawn = _mainDrawn;\n  }\n\n  function requestBonusMin(string calldata _apiKey, string calldata _game)\n    public\n  {\n    require(games[game].bonusMin == 0, \"already-got-value\");\n    Chainlink.Request memory req = buildChainlinkRequest(\n      uint256JobId,\n      address(this),\n      this.fulfillBonusMin.selector\n    );\n    req.add(\n      \"get\",\n      string(\n        abi.encodePacked(\n          \"https://www.magayo.com/api/info.php\",\n          \"?api_key=\",\n          _apiKey,\n          \"&game=\",\n          _game\n        )\n      )\n    );\n    req.add(\"path\", \"bonus_min\");\n    bytes32 requestId = sendChainlinkRequestTo(\n      oracleAddress,\n      req,\n      oraclePayment\n    );\n    emit RequestBonusMin(requestId);\n  }\n\n  function fulfillBonusMin(bytes32 _requestId, uint256 _bonusMin)\n    external\n    recordChainlinkFulfillment(_requestId)\n  {\n    emit FulfillBonusMin(_requestId, _bonusMin);\n    games[game].bonusMin = _bonusMin;\n  }\n\n  function requestBonusMax(string calldata _apiKey, string calldata _game)\n    public\n  {\n    require(games[game].bonusMax == 0, \"already-got-value\");\n    Chainlink.Request memory req = buildChainlinkRequest(\n      uint256JobId,\n      address(this),\n      this.fulfillBonusMax.selector\n    );\n    req.add(\n      \"get\",\n      string(\n        abi.encodePacked(\n          \"https://www.magayo.com/api/info.php\",\n          \"?api_key=\",\n          _apiKey,\n          \"&game=\",\n          _game\n        )\n      )\n    );\n    req.add(\"path\", \"bonus_max\");\n    bytes32 requestId = sendChainlinkRequestTo(\n      oracleAddress,\n      req,\n      oraclePayment\n    );\n    emit RequestBonusMax(requestId);\n  }\n\n  function fulfillBonusMax(bytes32 _requestId, uint256 _bonusMax)\n    external\n    recordChainlinkFulfillment(_requestId)\n  {\n    emit FulfillBonusMax(_requestId, _bonusMax);\n    games[game].bonusMax = _bonusMax;\n  }\n\n  function requestBonusDrawn(string calldata _apiKey, string calldata _game)\n    public\n  {\n    require(games[game].bonusDrawn == 0, \"already-got-value\");\n    Chainlink.Request memory req = buildChainlinkRequest(\n      uint256JobId,\n      address(this),\n      this.fulfillBonusDrawn.selector\n    );\n    req.add(\n      \"get\",\n      string(\n        abi.encodePacked(\n          \"https://www.magayo.com/api/info.php\",\n          \"?api_key=\",\n          _apiKey,\n          \"&game=\",\n          _game\n        )\n      )\n    );\n    req.add(\"path\", \"bonus_drawn\");\n    bytes32 requestId = sendChainlinkRequestTo(\n      oracleAddress,\n      req,\n      oraclePayment\n    );\n    emit RequestBonusDrawn(requestId);\n  }\n\n  function fulfillBonusDrawn(bytes32 _requestId, uint256 _bonusDrawn)\n    external\n    recordChainlinkFulfillment(_requestId)\n  {\n    emit FulfillBonusDrawn(_requestId, _bonusDrawn);\n    games[game].bonusDrawn = _bonusDrawn;\n  }\n\n  function requestSameBalls(string calldata _apiKey, string calldata _game)\n    public\n  {\n    Chainlink.Request memory req = buildChainlinkRequest(\n      boolJobId,\n      address(this),\n      this.fulfillSameBalls.selector\n    );\n    req.add(\n      \"get\",\n      string(\n        abi.encodePacked(\n          \"https://www.magayo.com/api/info.php\",\n          \"?api_key=\",\n          _apiKey,\n          \"&game=\",\n          _game\n        )\n      )\n    );\n    req.add(\"path\", \"same_balls\");\n    bytes32 requestId = sendChainlinkRequestTo(\n      oracleAddress,\n      req,\n      oraclePayment\n    );\n    emit RequestSameBalls(requestId);\n  }\n\n  // Todo: need to handle save N to false;\n  function fulfillSameBalls(bytes32 _requestId, bool _sameBalls)\n    external\n    recordChainlinkFulfillment(_requestId)\n  {\n    emit FulfillSameBalls(_requestId, _sameBalls);\n    games[game].sameBalls = _sameBalls;\n  }\n\n  function requestDigits(string calldata _apiKey, string calldata _game)\n    public\n  {\n    require(games[game].digits == 0, \"already-got-value\");\n    Chainlink.Request memory req = buildChainlinkRequest(\n      uint256JobId,\n      address(this),\n      this.fulfillDigits.selector\n    );\n    req.add(\n      \"get\",\n      string(\n        abi.encodePacked(\n          \"https://www.magayo.com/api/info.php\",\n          \"?api_key=\",\n          _apiKey,\n          \"&game=\",\n          _game\n        )\n      )\n    );\n    req.add(\"path\", \"digits\");\n    bytes32 requestId = sendChainlinkRequestTo(\n      oracleAddress,\n      req,\n      oraclePayment\n    );\n    emit RequestDigits(requestId);\n  }\n\n  function fulfillDigits(bytes32 _requestId, uint256 _digits)\n    external\n    recordChainlinkFulfillment(_requestId)\n  {\n    emit FulfillDigits(_requestId, _digits);\n    games[game].digits = _digits;\n  }\n\n  function requestDrawn(string calldata _apiKey, string calldata _game) public {\n    require(games[game].drawn == 0, \"already-got-value\");\n    Chainlink.Request memory req = buildChainlinkRequest(\n      uint256JobId,\n      address(this),\n      this.fulfillDrawn.selector\n    );\n    req.add(\n      \"get\",\n      string(\n        abi.encodePacked(\n          \"https://www.magayo.com/api/info.php\",\n          \"?api_key=\",\n          _apiKey,\n          \"&game=\",\n          _game\n        )\n      )\n    );\n    req.add(\"path\", \"drawn\");\n    bytes32 requestId = sendChainlinkRequestTo(\n      oracleAddress,\n      req,\n      oraclePayment\n    );\n    emit RequestDrawn(requestId);\n  }\n\n  function fulfillDrawn(bytes32 _requestId, uint256 _drawn)\n    external\n    recordChainlinkFulfillment(_requestId)\n  {\n    emit FulfillDrawn(_requestId, _drawn);\n    games[game].drawn = _drawn;\n  }\n\n  /*\n  function requestIsOption(string calldata _apiKey, string calldata _game) public {\n    Chainlink.Request memory req = buildChainlinkRequest(boolJobId, address(this), this.fulfillIsOption.selector);\n    req.add(\n      \"get\",\n      string(\n        abi.encodePacked(\n          \"https://www.magayo.com/api/info.php\",\n          \"?api_key=\",\n          _apiKey,\n          \"&game=\",\n          _game\n        )\n      )\n    );\n    req.add(\"path\", \"is_option\");\n    bytes32 requestId = sendChainlinkRequestTo(oracleAddress, req, oraclePayment);\n    emit RequestIsOption(requestId);\n  }\n */\n\n  /*\n  function fulfillIsOption(bytes32 _requestId, bool _isOption) external recordChainlinkFulfillment(_requestId){\n    emit FulfillIsOption(_requestId, _isOption);\n    games[game].isOption = _isOption;\n  }\n */\n\n  /*\n  function requestOptionDesc(string calldata _apiKey, string calldata _game) public {\n    require(games[game].optionDesc == 0, \"already-got-value\" );\n    Chainlink.Request memory req = buildChainlinkRequest(bytes32JobId, address(this), this.fulfillOptionDesc.selector);\n    req.add(\n      \"get\",\n      string(\n        abi.encodePacked(\n          \"https://www.magayo.com/api/info.php\",\n          \"?api_key=\",\n          _apiKey,\n          \"&game=\",\n          _game\n        )\n      )\n    );\n    req.add(\"path\", \"option_desc\");\n    bytes32 requestId = sendChainlinkRequestTo(oracleAddress, req, oraclePayment);\n    emit RequestOptionDesc(requestId);\n  }\n */\n\n  /*\n  function fulfillOptionDesc(bytes32 _requestId, bytes16 _optionDesc) external recordChainlinkFulfillment(_requestId){\n    emit FulfillOptionDesc(_requestId, _optionDesc);\n    games[game].optionDesc = _optionDesc;\n  }\n */\n\n  /*\n  function requestNextDraw(string calldata _apiKey, string calldata _game) public {\n    require(games[game].nextDraw == 0, \"already-got-value\" );\n    Chainlink.Request memory req = buildChainlinkRequest(bytes32JobId, address(this), this.fulfillNextDraw.selector);\n    req.add(\n      \"get\",\n      string(\n        abi.encodePacked(\n          \"https://www.magayo.com/api/info.php\",\n          \"?api_key=\",\n          _apiKey,\n          \"&game=\",\n          _game\n        )\n      )\n    );\n    req.add(\"path\", \"next_draw\");\n    bytes32 requestId = sendChainlinkRequestTo(oracleAddress, req, oraclePayment);\n    emit RequestNextDraw(requestId);\n  }\n */\n\n  /*\n  function requestNextDraw(string calldata _apiKey, string calldata _game) public {\n    require(games[game].nextDraw == 0, \"already-got-value\" );\n    Chainlink.Request memory req = buildChainlinkRequest(bytes32JobId, address(this), this.fulfillNextDraw.selector);\n    req.add(\n      \"get\",\n      string(\n        abi.encodePacked(\n          \"https://www.magayo.com/api/info.php\",\n          \"?api_key=\",\n          _apiKey,\n          \"&game=\",\n          _game\n        )\n      )\n    );\n    req.add(\"path\", \"next_draw\");\n    bytes32 requestId = sendChainlinkRequestTo(oracleAddress, req, oraclePayment);\n    emit RequestNextDraw(requestId);\n  }\n */\n\n  /*\n  function fulfillNextDraw(bytes32 _requestId, bytes32 _nextDraw) external recordChainlinkFulfillment(_requestId){\n    emit FulfillNextDraw(_requestId, _nextDraw);\n    string memory nextDraw = bytes32ToString(_nextDraw);\n    games[game].nextDraw = dt.toTimestamp(nextDraw[:3], nextDraw[5:6], nextDraw[9:9]);\n  }\n */\n\n  function withdrawLink() external onlyOwner {\n    LinkTokenInterface link = LinkTokenInterface(chainlinkTokenAddress());\n    require(\n      link.transfer(msg.sender, link.balanceOf(address(this))),\n      \"Unable to transfer\"\n    );\n  }\n\n  function cancelRequest(\n    bytes32 _requestId,\n    uint256 _payment,\n    bytes4 _callbackFunctionId,\n    uint256 _expiration\n  ) external onlyOwner {\n    cancelChainlinkRequest(\n      _requestId,\n      _payment,\n      _callbackFunctionId,\n      _expiration\n    );\n  }\n\n  function stringToBytes32(string memory source)\n    private\n    pure\n    returns (bytes32 result)\n  {\n    bytes memory tempEmptyStringTest = bytes(source);\n    if (tempEmptyStringTest.length == 0) {\n      return 0x0;\n    }\n\n    assembly {\n      // solhint-disable-line no-inline-assembly\n      result := mload(add(source, 32))\n    }\n  }\n\n  function bytes32ToString(bytes32 _bytes32)\n    internal\n    pure\n    returns (string memory)\n  {\n    bytes32 _temp;\n    uint256 count;\n    for (uint256 i; i < 32; i++) {\n      _temp = _bytes32[i];\n      if (_temp != bytes32(0)) {\n        count += 1;\n      }\n    }\n    bytes memory bytesArray = new bytes(count);\n    for (uint256 i; i < count; i++) {\n      bytesArray[i] = (_bytes32[i]);\n    }\n    return (string(bytesArray));\n  }\n}\n",
  "sourcePath": "/workspaces/chainlink-lottodao/contracts/MagayoOracle.sol",
  "compiler": {
    "name": "solc",
    "version": "0.6.12+commit.27d51765.Emscripten.clang"
  },
  "schemaVersion": "3.4.7",
  "updatedAt": "2022-05-22T13:46:21.067Z",
  "networkType": "ethereum",
  "devdoc": {
    "kind": "dev",
    "methods": {
      "getChainlinkToken()": {
        "details": "This is the public implementation for chainlinkTokenAddress, which is an internal method of the ChainlinkClient contract"
      },
      "owner()": {
        "details": "Returns the address of the current owner."
      },
      "renounceOwnership()": {
        "details": "Leaves the contract without owner. It will not be possible to call `onlyOwner` functions anymore. Can only be called by the current owner. NOTE: Renouncing ownership will leave the contract without an owner, thereby removing any functionality that is only available to the owner."
      },
      "transferOwnership(address)": {
        "details": "Transfers ownership of the contract to a new account (`newOwner`). Can only be called by the current owner."
      }
    },
    "version": 1
  },
  "userdoc": {
    "kind": "user",
    "methods": {
      "getChainlinkToken()": {
        "notice": "Returns the address of the LINK token"
      }
    },
    "version": 1
  }
}