{
  "contractName": "RandomNumber",
  "abi": [
    {
      "inputs": [
        {
          "internalType": "address",
          "name": "_governance",
          "type": "address"
        }
      ],
      "stateMutability": "nonpayable",
      "type": "constructor"
    },
    {
      "anonymous": false,
      "inputs": [
        {
          "indexed": true,
          "internalType": "address",
          "name": "previousOwner",
          "type": "address"
        },
        {
          "indexed": true,
          "internalType": "address",
          "name": "newOwner",
          "type": "address"
        }
      ],
      "name": "OwnershipTransferred",
      "type": "event"
    },
    {
      "inputs": [],
      "name": "governance",
      "outputs": [
        {
          "internalType": "address",
          "name": "",
          "type": "address"
        }
      ],
      "stateMutability": "view",
      "type": "function",
      "constant": true
    },
    {
      "inputs": [
        {
          "internalType": "bytes32",
          "name": "",
          "type": "bytes32"
        }
      ],
      "name": "nonces",
      "outputs": [
        {
          "internalType": "uint256",
          "name": "",
          "type": "uint256"
        }
      ],
      "stateMutability": "view",
      "type": "function",
      "constant": true
    },
    {
      "inputs": [],
      "name": "owner",
      "outputs": [
        {
          "internalType": "address",
          "name": "",
          "type": "address"
        }
      ],
      "stateMutability": "view",
      "type": "function",
      "constant": true
    },
    {
      "inputs": [
        {
          "internalType": "bytes32",
          "name": "requestId",
          "type": "bytes32"
        },
        {
          "internalType": "uint256",
          "name": "randomness",
          "type": "uint256"
        }
      ],
      "name": "rawFulfillRandomness",
      "outputs": [],
      "stateMutability": "nonpayable",
      "type": "function"
    },
    {
      "inputs": [],
      "name": "renounceOwnership",
      "outputs": [],
      "stateMutability": "nonpayable",
      "type": "function"
    },
    {
      "inputs": [
        {
          "internalType": "bytes32",
          "name": "_keyHash",
          "type": "bytes32"
        },
        {
          "internalType": "uint256",
          "name": "_fee",
          "type": "uint256"
        },
        {
          "internalType": "uint256",
          "name": "_seed",
          "type": "uint256"
        }
      ],
      "name": "requestRandomness",
      "outputs": [
        {
          "internalType": "bytes32",
          "name": "requestId",
          "type": "bytes32"
        }
      ],
      "stateMutability": "nonpayable",
      "type": "function"
    },
    {
      "inputs": [
        {
          "internalType": "address",
          "name": "newOwner",
          "type": "address"
        }
      ],
      "name": "transferOwnership",
      "outputs": [],
      "stateMutability": "nonpayable",
      "type": "function"
    },
    {
      "inputs": [
        {
          "internalType": "address",
          "name": "_governance",
          "type": "address"
        }
      ],
      "name": "setGovernance",
      "outputs": [],
      "stateMutability": "nonpayable",
      "type": "function"
    },
    {
      "inputs": [
        {
          "internalType": "uint256",
          "name": "userProvidedSeed",
          "type": "uint256"
        }
      ],
      "name": "getRandomNumber",
      "outputs": [
        {
          "internalType": "bytes32",
          "name": "requestId",
          "type": "bytes32"
        }
      ],
      "stateMutability": "nonpayable",
      "type": "function"
    }
  ],
  "bytecode": "0x608060405234801561001057600080fd5b50604051610b82380380610b828339818101604052602081101561003357600080fd5b5051600180546001600160a01b031990811673b3dccb4cf7a26f6cf6b120cf5a73875b7bbc655b17909155600080549091167301be23585060835e02b77ef475b0cc51aa1e0709178155610085610132565b600380546001600160a01b0319166001600160a01b038316908117909155604051919250906000907f8be0079c531659141344cd1fd0a4f28419497f9722a3daafe3b4186f6b6457e0908290a3507f2ed0feb3e7fd2022120aa84fab1945545a9f2ffc9076fd6156fa96eaff4c131160045567016345785d8a0000600555600680546001600160a01b039092166001600160a01b0319928316811790915560078054909216179055610136565b3390565b610a3d806101456000396000f3fe608060405234801561001057600080fd5b50600436106100935760003560e01c80639e317f12116100665780639e317f12146100f1578063ab033ea914610120578063b37217a414610146578063dc6cfe1014610163578063f2fde38b1461018c57610093565b80635aa6e67514610098578063715018a6146100bc5780638da5cb5b146100c657806394985ddd146100ce575b600080fd5b6100a06101b2565b604080516001600160a01b039092168252519081900360200190f35b6100c46101c1565b005b6100a061027f565b6100c4600480360360408110156100e457600080fd5b508035906020013561028e565b61010e6004803603602081101561010757600080fd5b50356102fb565b60408051918252519081900360200190f35b6100c46004803603602081101561013657600080fd5b50356001600160a01b031661030d565b61010e6004803603602081101561015c57600080fd5b50356103ad565b61010e6004803603606081101561017957600080fd5b5080359060208101359060400135610539565b6100c4600480360360208110156101a257600080fd5b50356001600160a01b03166106aa565b6006546001600160a01b031681565b6101c96107bf565b6001600160a01b03166101da61027f565b6001600160a01b031614610235576040805162461bcd60e51b815260206004820181905260248201527f4f776e61626c653a2063616c6c6572206973206e6f7420746865206f776e6572604482015290519081900360640190fd5b6003546040516000916001600160a01b0316907f8be0079c531659141344cd1fd0a4f28419497f9722a3daafe3b4186f6b6457e0908390a3600380546001600160a01b0319169055565b6003546001600160a01b031690565b6001546001600160a01b031633146102ed576040805162461bcd60e51b815260206004820152601f60248201527f4f6e6c7920565246436f6f7264696e61746f722063616e2066756c66696c6c00604482015290519081900360640190fd5b6102f782826107c3565b5050565b60026020526000908152604090205481565b6103156107bf565b6001600160a01b031661032661027f565b6001600160a01b031614610381576040805162461bcd60e51b815260206004820181905260248201527f4f776e61626c653a2063616c6c6572206973206e6f7420746865206f776e6572604482015290519081900360640190fd5b600680546001600160a01b039092166001600160a01b0319928316811790915560078054909216179055565b60075460408051635d09d2b960e11b815290516000926001600160a01b03169163ba13a57291600480830192602092919082900301818787803b1580156103f357600080fd5b505af1158015610407573d6000803e3d6000fd5b505050506040513d602081101561041d57600080fd5b50516001600160a01b0316331461046d576040805162461bcd60e51b815260206004820152600f60248201526e696e76616c69642d6164647265737360881b604482015290519081900360640190fd5b600554600054604080516370a0823160e01b815230600482015290516001600160a01b03909216916370a0823191602480820192602092909190829003018186803b1580156104bb57600080fd5b505afa1580156104cf573d6000803e3d6000fd5b505050506040513d60208110156104e557600080fd5b505110156105245760405162461bcd60e51b815260040180806020018281038252602b8152602001806109dd602b913960400191505060405180910390fd5b61053360045460055484610539565b92915050565b60008054600154604080516020808201899052818301879052825180830384018152606080840194859052630200057560e51b9094526001600160a01b0394851660648401818152608485018b905260a48501958652825160c486015282519690971696634000aea09691958b9593949193909260e4909101918501908083838d5b838110156105d35781810151838201526020016105bb565b50505050905090810190601f1680156106005780820380516001836020036101000a031916815260200191505b50945050505050602060405180830381600087803b15801561062157600080fd5b505af1158015610635573d6000803e3d6000fd5b505050506040513d602081101561064b57600080fd5b505060008481526002602052604081205461066b908690859030906108e2565b600086815260026020526040902054909150610688906001610929565b6000868152600260205260409020556106a1858261098a565b95945050505050565b6106b26107bf565b6001600160a01b03166106c361027f565b6001600160a01b03161461071e576040805162461bcd60e51b815260206004820181905260248201527f4f776e61626c653a2063616c6c6572206973206e6f7420746865206f776e6572604482015290519081900360640190fd5b6001600160a01b0381166107635760405162461bcd60e51b81526004018080602001828103825260268152602001806109b76026913960400191505060405180910390fd5b6003546040516001600160a01b038084169216907f8be0079c531659141344cd1fd0a4f28419497f9722a3daafe3b4186f6b6457e090600090a3600380546001600160a01b0319166001600160a01b0392909216919091179055565b3390565b60008111610807576040805162461bcd60e51b815260206004820152600c60248201526b3bb937b73396b73ab6b132b960a11b604482015290519081900360640190fd5b60075460408051635d09d2b960e11b815290516000926001600160a01b03169163ba13a57291600480830192602092919082900301818787803b15801561084d57600080fd5b505af1158015610861573d6000803e3d6000fd5b505050506040513d602081101561087757600080fd5b50516040805163d2a3f51160e01b81526004810185905290519192506001600160a01b0383169163d2a3f5119160248082019260009290919082900301818387803b1580156108c557600080fd5b505af11580156108d9573d6000803e3d6000fd5b50505050505050565b60408051602080820196909652808201949094526001600160a01b039290921660608401526080808401919091528151808403909101815260a09092019052805191012090565b600082820183811015610983576040805162461bcd60e51b815260206004820152601b60248201527f536166654d6174683a206164646974696f6e206f766572666c6f770000000000604482015290519081900360640190fd5b9392505050565b60408051602080820194909452808201929092528051808303820181526060909201905280519101209056fe4f776e61626c653a206e6577206f776e657220697320746865207a65726f20616464726573734e6f7420656e6f756768204c494e4b202d2066696c6c20636f6e7472616374207769746820666175636574a26469706673582212202521276915ab66d3f66eefee5d88ae582825ac799fcf0ff2983bd41de4add9ce64736f6c634300060c0033",
  "immutableReferences": {},
  "source": "// SPDX-License-Identifier: UNLICENSED\npragma solidity 0.6.12;\n\nimport \"@chainlink/contracts/src/v0.6/VRFConsumerBase.sol\";\nimport \"@openzeppelin/contracts/access/Ownable.sol\";\n\ninterface ILottery {\n  function updateDrawNumbers(uint256 _number) external;\n}\n\ninterface IGovernance {\n  function lottery() external returns (address);\n}\n\ncontract RandomNumber is VRFConsumerBase, Ownable {\n  bytes32 internal keyHash;\n  uint256 internal fee;\n  address public governance;\n  IGovernance iGovernance;\n\n  /**\n   * Constructor inherits VRFConsumerBase\n   *\n   * Network: Kovan\n   * Chainlink VRF Coordinator address: 0xf490AC64087d59381faF8Bf49Da299C073aAC152\n   * LINK token address:                0xa36085F69e2889c224210F603D836748e7dC0088\n   * Key Hash: 0x6c3699283bda56ad74f6b855546325b68d482e983852a7a82979cc4807b641f4\n   */\n  constructor(address _governance)\n    public\n    VRFConsumerBase(\n      // 0xf490AC64087d59381faF8Bf49Da299C073aAC152, // Kovan VRF Coordinator\n      0xb3dCcb4Cf7a26f6cf6B120Cf5A73875B7BBc655B, // Rinkeby VRF Coordinator\n      // 0xa36085F69e2889c224210F603D836748e7dC0088  // Kovan LINK Token\n      0x01BE23585060835E02B77ef475b0Cc51aA1e0709 // Rinkeby LINK Token\n    )\n  {\n    // keyHash = 0x6c3699283bda56ad74f6b855546325b68d482e983852a7a82979cc4807b641f4; // Kovan keyHash\n    keyHash = 0x2ed0feb3e7fd2022120aa84fab1945545a9f2ffc9076fd6156fa96eaff4c1311; // Rinkeby keyHash\n    fee = 0.1 * 10**18; // 0.1 LINK\n    governance = _governance;\n    iGovernance = IGovernance(_governance);\n  }\n\n  function setGovernance(address _governance) external onlyOwner {\n    governance = _governance;\n    iGovernance = IGovernance(_governance);\n  }\n\n  /**\n   * Requests randomness from a user-provided seed\n   */\n  function getRandomNumber(uint256 userProvidedSeed)\n    external\n    returns (bytes32 requestId)\n  {\n    require(msg.sender == iGovernance.lottery(), \"invalid-address\");\n    require(\n      LINK.balanceOf(address(this)) >= fee,\n      \"Not enough LINK - fill contract with faucet\"\n    );\n    return requestRandomness(keyHash, fee, userProvidedSeed);\n  }\n\n  /**\n   * Callback function used by VRF Coordinator\n   */\n  function fulfillRandomness(bytes32 requestId, uint256 randomness)\n    internal\n    override\n  {\n    require(randomness > 0, \"wrong-number\");\n    ILottery iLottery = ILottery(iGovernance.lottery());\n    iLottery.updateDrawNumbers(randomness);\n  }\n}\n",
  "sourcePath": "/workspaces/chainlink-lottodao/contracts/RandomNumber.sol",
  "compiler": {
    "name": "solc",
    "version": "0.6.12+commit.27d51765.Emscripten.clang"
  },
  "schemaVersion": "3.4.7",
  "updatedAt": "2022-05-22T13:49:16.899Z",
  "networkType": "ethereum",
  "devdoc": {
    "kind": "dev",
    "methods": {
      "owner()": {
        "details": "Returns the address of the current owner."
      },
      "renounceOwnership()": {
        "details": "Leaves the contract without owner. It will not be possible to call `onlyOwner` functions anymore. Can only be called by the current owner. NOTE: Renouncing ownership will leave the contract without an owner, thereby removing any functionality that is only available to the owner."
      },
      "requestRandomness(bytes32,uint256,uint256)": {
        "details": "The source of the seed data must be something which the oraclecannot anticipate. See \"SECURITY CONSIDERATIONS\" above.The fulfillRandomness method receives the output, once it's providedby the Oracle, and verified by the vrfCoordinator.The _keyHash must already be registered with the VRFCoordinator, andthe _fee must exceed the fee specified during registration of the_keyHash.The returned requestId can be used to distinguish responses to *concurrent requests. It is passed as the first argument tofulfillRandomness.",
        "params": {
          "_fee": "The amount of LINK to send with the request",
          "_keyHash": "ID of public key against which randomness is generated",
          "_seed": "Random seed from which output randomness is determined"
        },
        "returns": {
          "requestId": "which will be returned with the response to this request"
        }
      },
      "transferOwnership(address)": {
        "details": "Transfers ownership of the contract to a new account (`newOwner`). Can only be called by the current owner."
      }
    },
    "version": 1
  },
  "userdoc": {
    "kind": "user",
    "methods": {
      "constructor": "Constructor inherits VRFConsumerBase Network: Kovan Chainlink VRF Coordinator address: 0xf490AC64087d59381faF8Bf49Da299C073aAC152 LINK token address:                0xa36085F69e2889c224210F603D836748e7dC0088 Key Hash: 0x6c3699283bda56ad74f6b855546325b68d482e983852a7a82979cc4807b641f4",
      "getRandomNumber(uint256)": {
        "notice": "Requests randomness from a user-provided seed"
      },
      "requestRandomness(bytes32,uint256,uint256)": {
        "notice": "requestRandomness initiates a request for VRF output given _seed"
      }
    },
    "version": 1
  }
}